:020000040800F2
:1000000018FE00209D0A0208D1E00108D3E0010893
:10001000D5E00108D7E00108D9E0010800000000A0
:100020000000000000000000000000007152010804
:10003000DBE001080000000015520108DDE00108C6
:10004000550F0208590F02085D0F0208610F0208E0
:10005000650F0208690F02086D0F0208710F020890
:10006000750F0208790F02087D0F0208810F020840
:10007000850F0208890F02088D0F0208910F0208F0
:10008000950F0208990F02089D0F0208A10F0208A0
:10009000A50F0208A90F0208AD0F0208B10F020850
:1000A000B50F020841080020B90F0208BD0F020871
:1000B000C10F0208C50F0208C90F0208CD0F0208C0
:1000C000D10F0208D50F0208D90F0208DD0F020870
:1000D000E10F0208E50F0208E90F0208ED0F020820
:1000E000F10F0208F50F0208F90F0208FD0F0208D0
:1000F0000110020805100208091002080D1002087C
:100100001110020815100208191002081D1002082B
:100110002110020825100208291002082D100208DB
:10012000F1E0010831100208351002083910020808
:100130003D100208FBE001084110020845100208CA
:10014000491002084D10020851100208551002080B
:10015000591002085D1002086110020865100208BB
:10016000691002086D10020871100208751002086B
:10017000791002087D1002088110020800000000BA
:1001800085100208891002088D10020891100208DB
:1001900095100208991002089D100208A11002088B
:1001A0000000000000000000A5100208A9100208CD
:1001B000AD100208B1100208B5100208B91002080B
:1001C000BD100208C11002082F6D61696E5F636F78
:1001D0006E662E7368746D6C0000000048545450B5
:1001E0002F312E3020323030204F4B0D0A536572A4
:1001F0007665723A206C7749502F312E332E31209C
:1002000028687474703A2F2F736176616E6E61681E
:100210002E6E6F6E676E752E6F72672F70726F6ABB
:10022000656374732F6C776970290D0A436F6E7460
:10023000656E742D747970653A20746578742F68D2
:10024000746D6C0D0A457870697265733A20467258
:10025000692C20313020417072203230303820310A
:10026000343A30303A303020474D540D0A507261E4
:10027000676D613A206E6F2D63616368650D0A0DCD
:100280000AEFBBBF3C21444F4354595045204854CA
:100290004D4C205055424C494320222D2F2F57338F
:1002A000432F2F4454442048544D4C20342E303199
:1002B000205472616E736974696F6E616C2F2F4583
:1002C0004E223E0D0A3C68746D6C3E3C686561646C
:1002D0003E0D0A3C6D6574612063686172736574DC
:1002E0003D227574662D38223E0D0A3C7374796C7C
:1002F000653E0D0A2E68317B0D0A666F6E743A20DA
:100300006E6F726D616C206E6F726D616C20323237
:1003100070782F3339707820417269616C2C2048D5
:10032000656C7665746963612C2073616E732D73DF
:10033000657269663B0D0A7D0D0A0D0A2E707B0DF4
:100340000A666F6E743A206E6F726D616C20313484
:10035000707820417269616C2C2048656C766574F8
:100360006963612C2073616E732D73657269663BDE
:100370000D0A7D0D0A0D0A2E696E7075747B0D0ACB
:10038000646973706C61793A20696E6C696E652D71
:10039000626C6F636B3B0D0A626F782D73697A69CB
:1003A0006E673A20636F6E74656E742D626F783B72
:1003B0000D0A70616464696E673A20357078203187
:1003C0003070783B0D0A626F726465723A2031704A
:1003D0007820736F6C696420236237623762373B21
:1003E0000D0A626F726465722D7261646975733A89
:1003F000203470783B0D0A666F6E743A206E6F720F
:100400006D616C203134707820417269616C2C20F0
:1004100048656C7665746963612C2073616E732D19
:1004200073657269663B0D0A746578742D6F766525
:1004300072666C6F773A20636C69703B0D0A62617B
:10044000636B67726F756E643A20726762612832FF
:1004500035322C3235322C3235322C31293B0D0AD3
:10046000746578742D736861646F773A20317078A1
:100470002031707820302072676261283235352C47
:100480003235352C3235352C302E3636293B0D0A97
:100490007472616E736974696F6E3A20616C6C205E
:1004A0003230306D732063756269632D62657A69DD
:1004B000657228302E34322C20302C20302E3538E6
:1004C0002C2031293B0D0A7D0D0A0D0A2E74647B08
:1004D0000D0A70616464696E673A20313070783B50
:1004E0000D0A70616464696E672D72696768743A99
:1004F00020323070783B0D0A666F6E743A206E6F52
:10050000726D616C203134707820417269616C2C9D
:100510002048656C7665746963612C2073616E7325
:100520002D73657269663B0D0A7D0D0A0D0A2E62F8
:100530007574746F6E2C202E746573742C202E6469
:10054000656C7B0D0A666F6E743A206E6F726D611A
:100550006C206E6F726D616C20313470782F313485
:10056000707820417269616C2C2048656C766574E6
:100570006963612C2073616E732D73657269663BCC
:100580000D0A0D0A626F726465722D72616469757D
:10059000733A203470783B0D0A636F6C6F723A20A7
:1005A000236666663B0D0A70616464696E673A2073
:1005B00036707820313270783B0D0A746578742D6E
:1005C000736861646F773A203170782031707820D9
:1005D00030207267626128302C302C302C2E352967
:1005E0003B0D0A626F782D736861646F773A2069FA
:1005F0006E73657420302031707820302030207286
:10060000676261283235352C3235352C3235352C40
:100610002E35293B0D0A636F6C6F723A2023666694
:10062000666666663B0D0A746578742D736861644E
:100630006F773A2030202D31707820302072676239
:100640006128302C20302C20302C20302E323529BF
:100650003B0D0A626F782D736861646F773A206989
:100660006E7365742030203170782030207267629C
:1006700061283235352C203235352C203235352C59
:1006800020302E32292C20302031707820327078A2
:10069000207267626128302C20302C20302C2030D2
:1006A0002E3035293B0D0A7D0D0A0D0A2E62757418
:1006B000746F6E2D736176657B0D0A6261636B6783
:1006C000726F756E642D636F6C6F723A20233030D9
:1006D000383863633B0D0A6261636B67726F756ED6
:1006E000642D696D6167653A202D7765626B697469
:1006F0002D6772616469656E74286C696E656172DC
:100700002C203020302C203020313030252C206619
:10071000726F6D2823333338346363292C20746F50
:10072000282330303438636329293B0D0A62616322
:100730006B67726F756E642D7265706561743A20B7
:100740007265706561742D783B0D0A626F72646525
:10075000722D636F6C6F723A2023303038386363C8
:1007600020233030383863632023303038386363D7
:100770003B0D0A626F726465722D636F6C6F723A23
:10078000207267626128302C2037322C20323535B8
:100790002C20302E3129207267626128302C2037BE
:1007A000322C203235352C20302E312920726762D0
:1007B0006128302C20302C20302C20302E3235294E
:1007C0003B0D0A7D0D0A0D0A2E627574746F6E2D35
:1007D000746573747B0D0A6261636B67726F756E0B
:1007E000642D636F6C6F723A233335393233383B83
:1007F0000D0A6261636B67726F756E642D696D615E
:1008000067653A202D7765626B69742D6772616444
:1008100069656E74286C696E6561722C20302030B9
:100820002C203020313030252C2066726F6D28232B
:10083000356661663164292C20746F28233335397D
:1008400032333829293B0D0A6261636B67726F7519
:100850006E642D7265706561743A207265706561B1
:10086000742D783B0D0A626F726465722D636F6C34
:100870006F723A20233335393233382023316362A3
:1008800032623220233030303030303B0D0A626F1C
:10089000726465722D636F6C6F723A207267626169
:1008A00028302C203235352C203135342C20302E78
:1008B0003129207267626128302C203235352C2096
:1008C0003135342C20302E31292072676261283076
:1008D0002C203235352C203135342C20302E323539
:1008E000293B0D0A7D0D0A0D0A2E627574746F6E18
:1008F0002D64656C7B0D0A6261636B67726F756E48
:10090000642D636F6C6F723A236365313430613BE1
:100910000D0A6261636B67726F756E642D696D613C
:1009200067653A202D7765626B69742D6772616423
:1009300069656E74286C696E6561722C2030203098
:100940002C203020313030252C2066726F6D28230A
:10095000663434383438292C20746F282363653189
:1009600034306129293B0D0A6261636B67726F75D0
:100970006E642D7265706561743A20726570656190
:10098000742D783B0D0A626F726465722D636F6C13
:100990006F723A2023636531343061202342323252
:1009A00032323220233030303030303B0D0A626F2B
:1009B000726465722D636F6C6F723A207267626148
:1009C00028302C2037322C203235352C20302E3157
:1009D00029207267626128302C2037322C20323572
:1009E000352C20302E3129207267626128302C206E
:1009F00037322C203235352C20302E3235293B0D24
:100A00000A7D0D0A0D0A2E6D656E757B0D0A626FEB
:100A1000782D73697A696E673A20636F6E74656EBC
:100A2000742D626F783B0D0A77696474683A2032DE
:100A3000333770783B0D0A6865696768743A20330C
:100A40003670783B0D0A637572736F723A20706F5F
:100A5000696E7465723B20200D0A626F7264657264
:100A60003A2031707820736F6C6964202364646469
:100A70006464643B0D0A666F6E743A206E6F726D2B
:100A8000616C20313470782F33377078204172696F
:100A9000616C2C2048656C7665746963612C2073E9
:100AA000616E732D73657269663B0D0A74657874A7
:100AB0002D696E64656E743A20313270783B0D0A90
:100AC000746578742D6F766572666C6F773A206303
:100AD0006C69703B0D0A77686974652D737061638A
:100AE000653A206E6F777261703B0D0A636F6C6FB1
:100AF000723A20233030383863633B0D0A626163F9
:100B00006B67726F756E643A20236666666666660A
:100B10003B0D0A746578742D616C69676E3A206CC0
:100B20006566743B0D0A70616464696E673A2030D3
:100B300070783B0D0A6D617267696E3A202D3670D0
:100B4000782031307078202D387078203070783BE4
:100B50000D0A7D0D0A0D0A2E6D656E752D63757279
:100B600072656E747B0D0A6261636B67726F756E7E
:100B7000643A20233030383863633B0D0A626F7269
:100B80006465723A2031707820736F6C6964202339
:100B90006464646464643B0D0A636F6C6F723A2032
:100BA000236666666666663B0D0A7D20200D0A2078
:100BB000200D0A2E6D656E752D746F707B0D0A62A7
:100BC0006F726465722D7261646975733A20347056
:100BD0007820347078203020303B0D0A6D617267C8
:100BE000696E3A203070782031307078202D38705E
:100BF00078203070783B0D0A7D0D0A20200D0A2EDA
:100C00006C61796F75747B0D0A77696474683A203A
:100C1000313030253B0D0A6D617267696E3A2030C4
:100C20003B0D0A68656967743A20313030253B0D09
:100C30000A7D0D0A0D0A2E736964656261722C20AB
:100C40002E636F6E74656E747B0D0A706F736974BA
:100C5000696F6E3A206162736F6C7574653B0D0A43
:100C60007D0D0A0D0A2E736964656261727B200D29
:100C70000A746F703A203970783B0D0A6C6566749F
:100C80003A20313070783B0D0A7D0D0A0D0A2E6333
:100C90006F6E74656E747B0D0A746F703A203970D4
:100CA000783B0D0A6C6566743A2032373470783BB5
:100CB0000D0A77696474683A2037313770783B0DD4
:100CC0000A7D0D0A68727B0D0A626F726465723A62
:100CD000206E6F6E653B0D0A6261636B67726F75A4
:100CE0006E642D636F6C6F723A20726762283232C5
:100CF000392C203232392C20323239293B0D0A630B
:100D00006F6C6F723A207267622834392C2031354B
:100D1000312C20313136293B0D0A686569676874CA
:100D20003A203170783B0D0A7D0D0A3C2F7374799F
:100D30006C653E3C7469746C653ED0A3D0BFD180B5
:100D4000D0B0D0B2D0BBD0B5D0BDD0B8D0B53C2F8C
:100D50007469746C653E0D0A3C2F686561643E0DD4
:100D60000A0D0A3C626F64793E0D0A3C6469762084
:100D7000636C6173733D226C61796F7574223E0DF3
:100D80000A093C64697620636C6173733D22736960
:100D90006465626172223E090D0A09093C666F7240
:100DA0006D206D6574686F643D22676574222061F3
:100DB0006374696F6E3D222F776562312E636769B8
:100DC000223E200D0A0909093C627574746F6E2079
:100DD000747970653D227375626D69742220636C4D
:100DE0006173733D226D656E75206D656E752D7432
:100DF0006F70206D656E752D63757272656E7422ED
:100E0000206E616D653D226D61696E5F636F6E6618
:100E100069675F70616765223ED0A3D0BFD180D083
:100E2000B0D0B2D0BBD0B5D0BDD0B8D0B53C2F6219
:100E30007574746F6E3E0D0A09093C2F666F726DF2
:100E40003E090D0A09093C666F726D206D65746874
:100E50006F643D226765742220616374696F6E3D23
:100E6000222F776562322E636769223E200D0A09C0
:100E700009093C627574746F6E20747970653D2247
:100E80007375626D69742220636C6173733D226DAA
:100E9000656E7522206E616D653D226574685F70B8
:100EA000616765223E45746865726E65743C2F62A9
:100EB0007574746F6E3E0D0A09093C2F666F726D72
:100EC0003E090D0A09093C666F726D206D657468F4
:100ED0006F643D226765742220616374696F6E3DA3
:100EE000222F776562332E636769223E200D0A093F
:100EF00009093C627574746F6E20747970653D22C7
:100F00007375626D69742220636C6173733D226D29
:100F1000656E7522206E616D653D2263616C69624C
:100F20005F70616765223ED09AD0B0D0BBD0B8D098
:100F3000B1D180D0BED0B2D0BAD0B03C2F627574DF
:100F4000746F6E3E0D0A09093C2F666F726D3E0983
:100F500009090D0A093C2F6469763E0D0A093C64B3
:100F6000697620636C6173733D22636F6E74656E86
:100F700074223E09090D0A3C68723E0D0A0D0A3CB6
:100F80007020636C6173733D226831223ED0A2D021
:100F9000B5D0BAD183D189D0B8D0B520D0BDD0B02A
:100FA000D181D182D180D0BED0B9D0BAD0B83C2FB7
:100FB000703E0D0A3C666F726D206E616D65203D5E
:100FC0002022626F726465725F706172616D2220AF
:100FD0006D6574686F64203D20226765742220610E
:100FE0006374696F6E203D20222F776562312E6316
:100FF0006769223E0D0A3C7461626C652072756CF3
:1010000065733D226E6F6E65222077696474683D5A
:101010002231303025223E09090909090909090947
:10102000090D0A093C74626F64793E0D0A093C742B
:10103000723E0D0A09093C746420616C69676E3D5B
:101040002272696768742220636C6173733D227435
:1010500064223E09D0A1D182D0B0D182D0B8D1874C
:10106000D0B5D181D0BAD0BED0B520D181D0BED03C
:10107000BFD180D0BED182D0B8D0B2D0BBD0B5D095
:10108000BDD0B8D0B520D0B7D0B0D0BCD0BAD0BDCC
:10109000D183D182D18BD18520D0BAD0BED0BDD161
:1010A00082D0B0D0BAD182D0BED0B220D0B3D0B529
:1010B000D180D0BAD0BED0BDD0B02C20D0BCD09E74
:1010C000D0BC3C62723E090D0A09090909090909E7
:1010D000090909D0A1D182D0B0D182D0B8D187D0AE
:1010E000B5D181D0BAD0BED0B520D181D0BED0BFCD
:1010F000D180D0BED182D0B8D0B2D0BBD0B5D0BD17
:10110000D0B8D0B520D180D0B0D0B7D0BED0BCD070
:10111000BAD0BDD183D182D18BD18520D0BAD0BEF7
:10112000D0BDD182D0B0D0BAD182D0BED0B220D082
:10113000B3D0B5D180D0BAD0BED0BDD0B02C20D0E5
:101140009ED0BC3C62723E090D0A090909090909D1
:1011500009090909D094D0B8D181D0BFD0B5D180C8
:10116000D181D0B8D18F20D181D0BED0BFD180D095
:10117000BED182D0B8D0B2D0BBD0B5D0BDD0B8D05F
:10118000B520D0BAD0BED0BDD182D0B0D0BAD18235
:10119000D0BED0B220D0B3D0B5D180D0BAD0BED0DE
:1011A000BDD0B02C20D0BCD09ED0BC3C62723E0DD5
:1011B0000A09090909090909090909D0A1D0BED0FC
:1011C000BFD180D0BED182D0B8D0B2D0BBD0B5D044
:1011D000BDD0B8D0B520D0B8D0B7D0BED0BBD18F9D
:1011E000D186D0B8D0B82C20D09CD09ED0BC3C6248
:1011F000723E090909090909090909090D0A0909BC
:101200000909090909090909D09CD0B0D0B3D0BD9A
:10121000D0B8D182D0BDD0BED0B520D0BFD0BED046
:10122000BBD0B52C20D0BCD0A2D0BB3C62723E0D4E
:101230000A09090909090909090909D0A2D0BED07A
:10124000BA20D0BED0BFD180D0BED181D0B02C20AA
:10125000D0BCD0903C62723E0D0A09090909090907
:1012600009090909D0A7D0B0D181D182D0BED182DD
:10127000D0B020D181D0BBD0B5D0B4D0BED0B2D008
:10128000B0D0BDD0B8D18F20D182D0B5D181D1829C
:10129000D0BED0B2D18BD18520D0B8D0BCD0BFD1F8
:1012A00083D0BBD18CD181D0BED0B22C20D093D1F1
:1012B000863C62723E0D0A090909090909090909F2
:1012C00009D0A2D0BED0BA20D0BAD0B0D182D183BA
:1012D000D188D0BAD0B82C20D0BCD0BAD0903C6243
:1012E000723E090909090909090909090D0A0909CB
:1012F0000909090909090909D0A1D187D0B5D18205
:10130000D187D0B8D0BA20D182D0B5D181D182D006
:10131000BED0B220D0B3D0B5D180D0BAD0BED0BD6F
:10132000D0B03C62723E0D0A090909090909090990
:101330000909D0A1D187D0B5D182D187D0B8D0BA90
:1013400020D181D180D0B0D0B1D0B0D182D18BD0DA
:10135000B2D0B0D0BDD0B8D18F20D0B3D0B5D1806D
:10136000D0BAD0BED0BDD0B03C62723E0D0A0909E1
:101370000909090909090909D092D0B5D180D1819B
:10138000D0B8D18F20D0BFD180D0BED0B3D180D043
:10139000B0D0BCD0BCD0BDD0BED0B3D0BE20D0BEAB
:1013A000D0B1D0B5D181D0BFD0B5D187D0B5D0BD67
:1013B000D0B8D18F0D0A09093C2F74643E0D0A097B
:1013C000093C746420616C69676E3D226C656674CB
:1013D0002220636C6173733D227464223E3C6F75FE
:1013E0007470757420747970653D22746578742208
:1013F0003E3C70726520636C6173733D2270223EC7
:101400003C212D2D23742D2D3E203C2F7072653EE6
:101410003C2F74643E090909090909090D0A093CB0
:101420002F74723E0909090909090D0A093C2F7434
:10143000626F64793E0D0A3C2F7461626C653E0DEB
:101440000A3C2F666F726D3E0D0A0D0A3C68723EB3
:101450000D0A3C7020636C6173733D226831223E3B
:10146000D092D18BD0B1D180D0B0D182D18C20D1CB
:1014700082D0BED0BA20D0BED0BFD180D0BED18164
:10148000D0B03C2F703E0D0A3C666F726D206E61CD
:101490006D65203D20227365745F706172616D22FD
:1014A000206D6574686F64203D202267657422207A
:1014B000616374696F6E203D20222F776562312E43
:1014C000636769223E0D0A3C7461626C6520727527
:1014D0006C65733D226E6F6E652220776964746857
:1014E0003D2231303025223E0D0A093C74626F6482
:1014F000793E09090D0A09093C74723E0D0A090971
:101500003C746420636C6173733D227464222061B7
:101510006C69676E3D226C6566742220776964741D
:10152000683D22323025223ED0A2D0BED0BA3A3C0D
:101530002F74643E0D0A0909093C74643E3C703EF8
:101540003C73656C6563742069643D22736F666CDF
:101550006F7722206E616D653D22727363757272C2
:10156000222077696474683D22333025223E0D0ABB
:101570000909093C6F7074696F6E20646973616258
:101580006C65643ED092D18BD0B1D180D0B0D18285
:10159000D18C3C2F6F7074696F6E3E0D0A0909097A
:1015A0003C6F7074696F6E2076616C75653D223199
:1015B00022206E616D653D22706172697479223EF0
:1015C0003120D0BCD0903C2F6F7074696F6E3E0993
:1015D000090909090909090909090D0A0909093C43
:1015E0006F7074696F6E2076616C75653D22353061
:1015F00022206E616D653D22706172697479223EB0
:10160000353020D0BCD0903C2F6F7074696F6E3E27
:101610000D0A0909093C6F7074696F6E2076616C60
:1016200075653D2235303022206E616D653D22703A
:101630006172697479223E35303020D0BCD0903C44
:101640002F6F7074696F6E3E0909090909090D0A47
:1016500009093C2F73656C6563743E3C2F703E0D29
:101660000A0909093C2F74643E0D0A09093C746497
:1016700020616C69676E3D226C6566742220776913
:101680006474683D22353025223E3C627574746F67
:101690006E20636C6173733D22627574746F6E208B
:1016A000627574746F6E2D73617665222074797023
:1016B000653D227375626D6974222076616C756573
:1016C0003D225465737422206E616D653D22735F07
:1016D000727363757272223ED0A3D181D182D0B071
:1016E000D0BDD0BED0B2D0B8D182D18C3C2F6275E3
:1016F00074746F6E3E3C2F74643E0D0A093C2F7467
:10170000723E090D0A093C2F74626F64793E090923
:10171000090D0A3C2F74626F64793E0D0A3C2F74E8
:1017200061626C653E0D0A3C2F666F726D3E0D0A5C
:101730000D0A3C68723E0D0A3C7020636C61737345
:101740003D226831223ED0A3D181D182D0B0D0BD1C
:10175000D0BED0B2D0B8D182D18C20D187D0B0D178
:1017600081D182D0BED182D18320D181D0BBD0B5EE
:10177000D0B4D0BED0B2D0B0D0BDD0B8D18F20D1EF
:1017800082D0B5D181D182D0BED0B2D18BD18520CB
:10179000D0B8D0BCD0BFD183D0BBD18CD181D0BE8A
:1017A000D0B23C2F703E0D0A3C666F726D206E61A8
:1017B0006D653D2277726974655F626F72646572F0
:1017C00022206D6574686F643D2267657422206114
:1017D0006374696F6E3D222F776562312E6367698E
:1017E000223E0D0A3C7461626C652072756C6573F3
:1017F0003D226E6F6E65222077696474683D2231E8
:10180000303025223E0D0A3C74626F64793E0D0A29
:10181000093C74723E0D0A09093C74642020636C13
:101820006173733D2274642220616C69676E3D228E
:101830006C656674223ED0A7D0B0D181D182D0BE73
:10184000D182D0B02C20D093D1863A3C2F74643E04
:101850000D0A09093C74642020616C69676E3D22A1
:101860006C65667422203E203C696E707574206E33
:10187000616D653D2266726571222073697A653DEE
:1018800022313622206D61786C656E6774683D2266
:1018900031362220636C6173733D22696E707574FA
:1018A000222076616C7565203D20223530223E2055
:1018B0003C2F74643E0D0A09093C74643E3C627519
:1018C00074746F6E20747970653D227375626D69F2
:1018D000742220206E616D653D22736672657122EF
:1018E00020616C69676E3D2263656E7465722220AB
:1018F000636C6173733D22627574746F6E206275E0
:1019000074746F6E2D73617665223ED0A3D181D140
:1019100082D0B0D0BDD0BED0B2D0B8D182D18C3CB4
:101920002F627574746F6E3E3C2F74643E09090912
:1019300009090D0A093C2F74723E0D0A3C2F74628E
:101940006F64793E0D0A3C2F7461626C653E0D0A2E
:101950003C62723E0D0A3C7020636C6173733D22E1
:1019600070223ED094D0B8D0B0D0BFD0B0D0B7D0D5
:10197000BED0BD20D0B7D0B0D0B4D0B0D0BDD0B8DC
:10198000D18F20D187D0B0D181D182D0BED1822059
:10199000D181D0BBD0B5D0B4D0BED0B2D0B0D0BD44
:1019A000D0B8D18F20D182D0B5D181D182D0BED054
:1019B000B2D18BD18520D0B8D0BCD0BFD183D0BB21
:1019C000D18CD181D0BED0B220312E2E2E313020FC
:1019D000D0BAD093D1863C2F703E0D0A3C2F666F53
:1019E000726D3E090D0A0D0A3C68723E0D0A3C708C
:1019F00020636C6173733D226831223ED0A3D18194
:101A0000D182D0B0D0BDD0BED0B2D0B8D182D18C2E
:101A100020D182D0BED0BA20D0BAD0B0D182D1836A
:101A2000D188D0BAD0B83C2F703E0D0A3C666F7298
:101A30006D206E616D653D2277726974655F626FBE
:101A40007264657222206D6574686F643D226765FB
:101A5000742220616374696F6E3D222F7765623155
:101A60002E636769223E0D0A3C7461626C652072C8
:101A7000756C65733D226E6F6E65222077696474A4
:101A8000683D2231303025223E0D0A3C74626F647D
:101A9000793E0D0A093C74723E0D0A09093C7464D2
:101AA0002020636C6173733D2274642220616C6931
:101AB000676E3D226C656674223ED0A2D0BED0BA5D
:101AC0002C20D0BCD0BAD0903A3C2F74643E0D0A82
:101AD00009093C74642020616C69676E3D226C6565
:101AE000667422203E203C696E707574206E616DB4
:101AF000653D22636F696C63757272222073697A27
:101B0000653D22313622206D61786C656E677468A0
:101B10003D2231362220636C6173733D22696E7001
:101B20007574222076616C7565203D202235303039
:101B300030223E203C2F74643E0D0A09093C746437
:101B40003E3C627574746F6E20747970653D2273CB
:101B500075626D69742220206E616D653D22735F30
:101B6000636F696C637572722220616C69676E3D88
:101B70002263656E7465722220636C6173733D220B
:101B8000627574746F6E20627574746F6E2D7361FC
:101B90007665223ED0A3D181D182D0B0D0BDD0BE57
:101BA000D0B2D0B8D182D18C3C2F627574746F6E74
:101BB0003E3C2F74643E09090909090D0A093C2FAE
:101BC00074723E0D0A3C2F74626F64793E0D0A3CBC
:101BD0002F7461626C653E0D0A3C62723E0D0A3CD8
:101BE0007020636C6173733D2270223ED09CD0B034
:101BF000D0BAD181D0B8D0BCD0B0D0BBD18CD0BD00
:101C0000D18BD0B920D182D0BED0BA20D0BAD0B03A
:101C1000D182D183D188D0BAD0B82034303030309E
:101C200020D0BCD0BAD0903C2F703E0D0A3C2F661D
:101C30006F726D3E090D0A0D0A0D0A3C68723E0D69
:101C40000A3C7020636C6173733D226831223ED080
:101C5000A2D0B5D181D182D0B8D180D0BED0B2D0FF
:101C6000B0D0BDD0B8D0B53C2F703E0D0A3C7461E9
:101C7000626C652072756C65733D226E6F6E6522B5
:101C80002077696474683D2231303025223E0D0A88
:101C90003C74626F64793E0D0A093C74723E0D0A11
:101CA00009093C74643E0D0A09093C666F726D2097
:101CB0006D6574686F643D2267657422206163748A
:101CC000696F6E3D222F776562312E636769223E10
:101CD000200D0A0909093C627574746F6E207479CD
:101CE00070653D227375626D69742220636C617347
:101CF000733D22627574746F6E20627574746F6EBA
:101D00002D7361766522206E616D653D2273696E6B
:101D1000676C655F7473747374617274223ED097DC
:101D2000D0B0D0BFD183D181D182D0B8D182D18C73
:101D300020D0BED0B4D0BDD0BED0BAD180D0B0D12A
:101D400082D0BDD0BE3C2F627574746F6E3E200D84
:101D50000A09093C2F666F726D3E0D0A09093C2F76
:101D600074643E0D0A09093C74643E0D0A09093C7D
:101D7000666F726D206D6574686F643D226765746F
:101D80002220616374696F6E3D222F776562312E68
:101D9000636769223E200D0A0909093C6275747463
:101DA0006F6E20747970653D227375626D6974225F
:101DB00020636C6173733D22627574746F6E206270
:101DC0007574746F6E2D7361766522206E616D651A
:101DD0003D226379635F7473747374617274223E1D
:101DE000D097D0B0D0BFD183D181D182D0B8D182A9
:101DF000D18C20D186D0B8D0BAD0BBD0B8D187D0C2
:101E0000B5D181D0BAD0B83C2F627574746F6E3E74
:101E1000200D0A09093C2F666F726D3E0D0A0909F3
:101E20003C2F74643E0D0A09093C74643E0D0A0996
:101E3000093C666F726D206D6574686F643D226742
:101E400065742220616374696F6E3D222F7765622D
:101E5000312E636769223E200D0A0909093C62752B
:101E600074746F6E20747970653D227375626D694C
:101E7000742220636C6173733D22627574746F6E9B
:101E800020627574746F6E2D7361766522206E61A9
:101E90006D653D226379635F74737473746F702230
:101EA0003ED092D18BD0BAD0BBD18ED187D0B8D111
:101EB00082D18C3C2F627574746F6E3E200D0A09BE
:101EC000093C2F666F726D3E0D0A09093C2F746440
:101ED0003E090909090D0A093C2F74723E090D0AD1
:101EE000093C74723E0D0A09093C74643E0D0A09EE
:101EF000093C666F726D206D6574686F643D226782
:101F000065742220616374696F6E3D222F7765626C
:101F1000312E636769223E200D0A0909093C62756A
:101F200074746F6E20747970653D227375626D698B
:101F3000742220636C6173733D22627574746F6EDA
:101F400020627574746F6E2D7361766522206E61E8
:101F50006D653D2269736F5F74737473746172741D
:101F6000223ED0A2D0B5D181D182D0B8D180D0BE0E
:101F7000D0B2D0B0D0BDD0B8D0B520D0B8D0B7D0C6
:101F8000BED0BBD18FD186D0B8D0B83C2F6275748B
:101F9000746F6E3E200D0A09093C2F666F726D3E0C
:101FA0000D0A09093C2F74643E09090D0A09093C10
:101FB00074643E0D0A09093C666F726D206D65748C
:101FC000686F643D226765742220616374696F6E77
:101FD0003D222F776562312E636769223E200D0A0C
:101FE0000909093C627574746F6E20747970653DDF
:101FF000227375626D69742220636C6173733D2274
:10200000627574746F6E20627574746F6E2D736177
:10201000766522206E616D653D22636F696C6F6E1F
:10202000223ED092D0BAD0BBD18ED187D0B8D18247
:10203000D18C20D0B3D0B5D180D0BAD0BED0BD2005
:10204000D0BFD0BED181D182D0BED18FD0BDD0BDC6
:10205000D0BE3C2F627574746F6E3E200D0A090964
:102060003C2F666F726D3E0D0A09093C2F74643E69
:102070000909090D0A093C2F74723E090D0A093C31
:1020800074723E0D0A09093C74643E0D0A09093C4C
:10209000666F726D206D6574686F643D226765744C
:1020A0002220616374696F6E3D222F776562312E45
:1020B000636769223E200D0A0909093C6275747440
:1020C0006F6E20747970653D227375626D6974223C
:1020D00020636C6173733D22627574746F6E20624D
:1020E0007574746F6E2D7361766522206E616D65F7
:1020F0003D226D61675F7473747374617274223E04
:10210000D0A2D0B5D181D182D0B8D180D0BED0B24A
:10211000D0B0D0BDD0B8D0B520D0BFD0BED0BFD009
:10212000BBD0B0D0B2D0BAD0B03C2F627574746F4F
:102130006E3E200D0A09093C2F666F726D3E0D0A36
:1021400009093C2F74643E09090D0A093C2F747279
:102150003E0909090D0A093C2F74723E0D0A3C2FF5
:1021600074626F64793E0D0A3C2F7461626C653E47
:102170000D0A3C7020636C6173733D2270223ED067
:1021800094D0BBD18F20D0B0D0B2D182D0BED0BA43
:10219000D0B0D0BBD0B8D0B1D180D0BED0B2D0BA40
:1021A000D0B820D0B7D0B0D0BCD0BAD0BDD0B8D184
:1021B00082D0B520D0B8D0B7D0BCD0B5D180D0B8FF
:1021C000D182D0B5D0BBD18CD0BDD18BD0B520D1F0
:1021D00089D183D0BFD18B2C20D0BFD0BED0B4D07A
:1021E000BAD0BBD18ED187D0B0D0B5D0BCD18BD036
:1021F000B520D0BA20D0B3D0B5D180D0BAD0BED01F
:10220000BDD1832C20D0BCD0B5D0B6D0B4D18320E2
:10221000D181D0BED0B1D0BED0B93C2F703E0D0A16
:102220000D0A3C68723E0D0A0D0A0D0A3C702063CF
:102230006C6173733D226831223ED094D0B0D0BD22
:10224000D0BDD18BD0B53C2F703E0D0A3C7461627D
:102250006C652072756C65733D226E6F6E65222011
:1022600077696474683D2231303025223E0D0A3C86
:1022700074626F64793E0D0A093C74723E0D0A095E
:102280003C666F726D206D6574686F643D22676592
:10229000742220616374696F6E3D222F776562310D
:1022A0002E636769223E200D0A09093C6275747429
:1022B0006F6E20747970653D227375626D6974224A
:1022C00020636C6173733D22627574746F6E20625B
:1022D0007574746F6E2D7361766522206E616D6505
:1022E0003D2272645F64617461223ED0A1D187D0C7
:1022F000B8D182D0B0D182D18C20D0B4D0B0D0BDF2
:10230000D0BDD18BD0B53C2F627574746F6E3E20FA
:102310000D0A093C2F666F726D3E0D0A093C2F7441
:10232000723E090D0A3C2F74626F64793E0D0A3CBF
:102330002F7461626C653E0D0A0D0A0D0A3C2F6414
:1023400069763E0D0A3C2F6469763E0D0A3C2F6289
:102350006F64793E0D0A3C2F68746D6C3E0000007E
:102360002F636F6E6669675F6574682E7368746D3E
:102370006C000000485454502F312E302032303041
:10238000204F4B0D0A5365727665723A206C77497F
:10239000502F312E332E312028687474703A2F2F2D
:1023A000736176616E6E61682E6E6F6E676E752EEC
:1023B0006F72672F70726F6A656374732F6C7769C1
:1023C00070290D0A436F6E74656E742D7479706593
:1023D0003A20746578742F68746D6C0D0A457870B6
:1023E000697265733A204672692C20313020417041
:1023F0007220323030382031343A30303A303020A8
:10240000474D540D0A507261676D613A206E6F2D11
:1024100063616368650D0A0D0AEFBBBF203C214470
:102420004F43545950452048544D4C205055424C30
:10243000494320222D2F2F5733432F2F445444201C
:1024400048544D4C20342E3031205472616E7369E3
:1024500074696F6E616C2F2F454E223E0D0A3C68E9
:10246000746D6C3E3C686561643E0D0A3C6D65743C
:102470006120636861727365743D227574662D38DE
:10248000223E0D0A3C7374796C653E0D0A2E68314C
:102490007B0D0A666F6E743A206E6F726D616C20F0
:1024A0006E6F726D616C20323270782F33397078B4
:1024B00020417269616C2C2048656C766574696393
:1024C000612C2073616E732D73657269663B0D0A12
:1024D0007D0D0A0D0A2E707B0D0A666F6E743A2010
:1024E0006E6F726D616C2031347078204172696159
:1024F0006C2C2048656C7665746963612C2073616F
:102500006E732D73657269663B0D0A7D0D0A0D0AA7
:102510002E696E7075747B0D0A646973706C6179D5
:102520003A20696E6C696E652D626C6F636B3B0D52
:102530000A626F782D73697A696E673A20636F6EED
:1025400074656E742D626F783B0D0A706164646906
:102550006E673A2035707820313070783B0D0A6212
:102560006F726465723A2031707820736F6C6964A1
:1025700020236237623762373B0D0A626F726465EF
:10258000722D7261646975733A203470783B0D0A5C
:10259000666F6E743A206E6F726D616C20313470AC
:1025A0007820417269616C2C2048656C766574698D
:1025B00063612C2073616E732D73657269663B0DC8
:1025C0000A746578742D6F766572666C6F773A2041
:1025D000636C69703B0D0A6261636B67726F756E45
:1025E000643A2072676261283235322C3235322CDF
:1025F0003235322C31293B0D0A746578742D73689D
:1026000061646F773A203170782031707820302003
:1026100072676261283235352C3235352C323535CA
:102620002C302E3636293B0D0A7472616E73697434
:10263000696F6E3A20616C6C203230306D732063AC
:10264000756269632D62657A69657228302E34324D
:102650002C20302C20302E35382C2031293B0D0AEF
:102660007D0D0A0D0A2E74647B0D0A706164646925
:102670006E673A20313070783B0D0A70616464698E
:102680006E672D72696768743A20323070783B0D3E
:102690000A666F6E743A206E6F726D616C20313411
:1026A000707820417269616C2C2048656C76657485
:1026B0006963612C2073616E732D73657269663B6B
:1026C0000D0A7D0D0A0D0A2E627574746F6E2C2032
:1026D0002E746573742C202E64656C7B0D0A666FF6
:1026E0006E743A206E6F726D616C206E6F726D61E8
:1026F0006C20313470782F313470782041726961E8
:102700006C2C2048656C7665746963612C2073615C
:102710006E732D73657269663B0D0A0D0A626F72E6
:102720006465722D7261646975733A203470783B08
:102730000D0A636F6C6F723A20236666663B0D0A62
:1027400070616464696E673A203670782031327047
:10275000783B0D0A746578742D736861646F773AFD
:1027600020317078203170782030207267626128C3
:10277000302C302C302C2E35293B0D0A626F782DF1
:10278000736861646F773A20696E736574203020D6
:102790003170782030203020726762612832353500
:1027A0002C3235352C3235352C2E35293B0D0A632C
:1027B0006F6C6F723A20236666666666663B0D0A2A
:1027C000746578742D736861646F773A2030202DBA
:1027D0003170782030207267626128302C20302CD4
:1027E00020302C20302E3235293B0D0A626F782D97
:1027F000736861646F773A20696E73657420302066
:1028000031707820302072676261283235352C2093
:102810003235352C203235352C20302E32292C20E3
:1028200030203170782032707820726762612830F1
:102830002C20302C20302C20302E3035293B0D0A16
:102840007D0D0A0D0A2E627574746F6E2D7361769C
:10285000657B0D0A6261636B67726F756E642D63D1
:102860006F6C6F723A20233030383863633B0D0A47
:102870006261636B67726F756E642D696D61676508
:102880003A202D7765626B69742D677261646965A2
:102890006E74286C696E6561722C203020302C209B
:1028A0003020313030252C2066726F6D2823333371
:1028B00038346363292C20746F2823303034386314
:1028C0006329293B0D0A6261636B67726F756E64E1
:1028D0002D7265706561743A207265706561742D42
:1028E000783B0D0A626F726465722D636F6C6F7254
:1028F0003A2023303038386363202330303838634F
:102900006320233030383863633B0D0A626F726492
:1029100065722D636F6C6F723A2072676261283046
:102920002C2037322C203235352C20302E312920E6
:102930007267626128302C2037322C203235352CDA
:1029400020302E3129207267626128302C20302CF3
:1029500020302C20302E3235293B0D0A7D0D0A0DFA
:102960000A2E627574746F6E2D746573747B0D0A14
:102970006261636B67726F756E642D636F6C6F72EB
:102980003A233335393233383B0D0A6261636B6762
:10299000726F756E642D696D6167653A202D77657C
:1029A000626B69742D6772616469656E74286C6905
:1029B0006E6561722C203020302C20302031303078
:1029C000252C2066726F6D28233566616631642977
:1029D0002C20746F282333353932333829293B0DA5
:1029E0000A6261636B67726F756E642D72657065E4
:1029F00061743A207265706561742D783B0D0A62CE
:102A00006F726465722D636F6C6F723A2023333579
:102A1000393233382023316362326232202330303E
:102A2000303030303B0D0A626F726465722D636F17
:102A30006C6F723A207267626128302C2032353513
:102A40002C203135342C20302E31292072676261E0
:102A500028302C203235352C203135342C20302EA6
:102A60003129207267626128302C203235352C20C4
:102A70003135342C20302E3235293B0D0A7D0D0A9C
:102A80000D0A2E627574746F6E2D64656C7B0D0A71
:102A90006261636B67726F756E642D636F6C6F72CA
:102AA0003A236365313430613B0D0A6261636B67C1
:102AB000726F756E642D696D6167653A202D77655B
:102AC000626B69742D6772616469656E74286C69E4
:102AD0006E6561722C203020302C20302031303057
:102AE000252C2066726F6D282366343438343829DB
:102AF0002C20746F282363653134306129293B0D04
:102B00000A6261636B67726F756E642D72657065C2
:102B100061743A207265706561742D783B0D0A62AC
:102B20006F726465722D636F6C6F723A20236365F8
:102B3000313430612023423232323232202330307D
:102B4000303030303B0D0A626F726465722D636FF6
:102B50006C6F723A207267626128302C2037322CF9
:102B6000203235352C20302E3129207267626128C1
:102B7000302C2037322C203235352C20302E312984
:102B8000207267626128302C2037322C2032353594
:102B90002C20302E3235293B0D0A7D0D0A0D0A2ED0
:102BA0006D656E757B0D0A626F782D73697A696E3B
:102BB000673A20636F6E74656E742D626F783B0D9B
:102BC0000A77696474683A2032333770783B0D0AAB
:102BD0006865696768743A20333670783B0D0A631C
:102BE0007572736F723A20706F696E7465723B20F4
:102BF000200D0A626F726465723A2031707820731A
:102C00006F6C696420236464646464643B0D0A66C9
:102C10006F6E743A206E6F726D616C203134707813
:102C20002F3337707820417269616C2C2048656CB5
:102C30007665746963612C2073616E732D736572A0
:102C400069663B0D0A746578742D696E64656E74EF
:102C50003A20313270783B0D0A746578742D6F76A6
:102C60006572666C6F773A20636C69703B0D0A770A
:102C7000686974652D73706163653A206E6F777251
:102C800061703B0D0A636F6C6F723A2023303038ED
:102C90003863633B0D0A6261636B67726F756E64C4
:102CA0003A20236666666666663B0D0A746578742C
:102CB0002D616C69676E3A206C6566743B0D0A7015
:102CC000616464696E673A203070783B0D0A6D610B
:102CD0007267696E3A202D36707820313070782016
:102CE0002D387078203070783B0D0A7D0D0A0D0A62
:102CF0002E6D656E752D63757272656E747B0D0A2F
:102D00006261636B67726F756E643A20233030388E
:102D10003863633B0D0A626F726465723A203170EA
:102D20007820736F6C696420236464646464643B1A
:102D30000D0A636F6C6F723A20236666666666667C
:102D40003B0D0A7D20200D0A20200D0A2E6D656E98
:102D5000752D746F707B0D0A626F726465722D72CF
:102D600061646975733A203470782034707820304B
:102D700020303B0D0A6D617267696E3A20307078C1
:102D80002031307078202D387078203070783B0DED
:102D90000A7D0D0A20200D0A2E6C61796F75747BF7
:102DA0000D0A77696474683A20313030253B0D0A8A
:102DB0006D617267696E3A20303B0D0A686569671C
:102DC000743A20313030253B0D0A7D0D0A0D0A2E54
:102DD000736964656261722C202E636F6E74656E18
:102DE000747B0D0A706F736974696F6E3A2061624B
:102DF000736F6C7574653B0D0A7D0D0A0D0A2E7399
:102E00006964656261727B200D0A746F703A2039C3
:102E100070783B0D0A6C6566743A20313070783BEF
:102E20000D0A7D0D0A0D0A2E636F6E74656E747B3C
:102E30000D0A746F703A203970783B0D0A6C656624
:102E4000743A2032373470783B0D0A7769647468BD
:102E50003A2037313770783B0D0A7D0D0A68727B56
:102E60000D0A626F726465723A206E6F6E653B0D7B
:102E70000A6261636B67726F756E642D636F6C6F4E
:102E8000723A20726762283232392C203232392C61
:102E900020323239293B0D0A636F6C6F723A20720F
:102EA00067622834392C203135312C2031313629D4
:102EB0003B0D0A6865696768743A203170783B0D8C
:102EC0000A7D0D0A3C2F7374796C653E3C746974FD
:102ED0006C653E45746865726E65742070617261E0
:102EE0006D65746572733C2F7469746C653E0D0A70
:102EF0003C2F686561643E0D0A0D0A3C626F64797F
:102F00003E0D0A3C64697620636C6173733D226CEC
:102F100061796F7574223E0D0A093C6469762063FD
:102F20006C6173733D2273696465626172223E094C
:102F30000D0A09093C666F726D206D6574686F64D7
:102F40003D226765742220616374696F6E3D222F94
:102F5000776562312E636769223E200D0A090909EF
:102F60003C627574746F6E20747970653D22737560
:102F7000626D69742220636C6173733D226D656EAE
:102F80007522206E616D653D226D61696E5F636FB4
:102F90006E6669675F70616765223ED0A3D0BFD15E
:102FA00080D0B0D0B2D0BBD0B5D0BDD0B8D0B53CB9
:102FB0002F627574746F6E3E0D0A09093C2F666F9F
:102FC000726D3E090D0A09093C666F726D206D65D0
:102FD00074686F643D226765742220616374696F51
:102FE0006E3D222F776562322E636769223E200D87
:102FF0000A0909093C627574746F6E2074797065F2
:103000003D227375626D69742220636C6173733D38
:10301000226D656E75206D656E752D746F70206DF7
:10302000656E752D63757272656E7422206E616DAA
:10303000653D226574685F70616765223E4574680E
:1030400065726E65743C2F627574746F6E3E0D0A06
:1030500009093C2F666F726D3E090D0A09093C662D
:103060006F726D206D6574686F643D2267657422B0
:1030700020616374696F6E3D222F776562332E6322
:103080006769223E200D0A0909093C627574746F54
:103090006E20747970653D227375626D69742220AB
:1030A000636C6173733D226D656E7522206E616D78
:1030B000653D2263616C69625F70616765223ED025
:1030C0009AD0B0D0BBD0B8D0B1D180D0BED0B2D021
:1030D000BAD0B03C2F627574746F6E3E0D0A090948
:1030E0003C2F666F726D3E0909090D0A093C2F6479
:1030F00069763E0D0A093C64697620636C617373DE
:103100003D22636F6E74656E74223E0D0A3C6872D8
:103110003E0D0A0D0A3C7020636C6173733D22689A
:1031200031223E20D0A2D0B5D0BAD183D189D0B837
:10313000D0B520D0BDD0B0D181D182D180D0BED089
:10314000B9D0BAD0B82045746865726E65743C2FEA
:10315000703E0D0A3C666F726D206E616D65203D9C
:103160002022726561645F706172616D5F65746871
:1031700022206D6574686F64203D2022676574228B
:1031800020616374696F6E203D20222F7765623263
:103190002E636769223E0D0A3C7461626C65207281
:1031A000756C65733D226E6F6E652220776964745D
:1031B000683D2231303025223E09090909090909F3
:1031C0000909090D0A093C74626F64793E0D0A0908
:1031D0003C74723E0D0A09093C746420616C696795
:1031E0006E3D2272696768742220636C6173733D5F
:1031F000227464223E09495020D0B0D0B4D180D08E
:10320000B5D1813C62723E0D0A0909090909090913
:10321000090909D0A8D0BBD18ED0B73C62723E0D4F
:103220000A09090909090909090909D09CD0B0D17D
:1032300081D0BAD0B020D0BFD0BED0B4D181D0B56B
:10324000D182D0B83C62723E0D0A09090909090908
:10325000090909094D414320D0B0D0B4D180D0B57F
:10326000D181090909090909090909090D0A090989
:103270003C2F74643E0909090909090909090D0A65
:1032800009093C746420616C69676E3D226C656657
:10329000742220636C6173733D227464223E3C6F20
:1032A000757470757420747970653D2274657874D6
:1032B000223E203C70726520636C6173733D227006
:1032C000223E3C212D2D23742D2D3E203C2F70724B
:1032D000653E3C2F74643E090909090909090D0A74
:1032E000093C2F74723E0909090909090D0A093CB4
:1032F0002F74626F64793E0D0A3C2F7461626C65B5
:103300003E0D0A3C2F666F726D3E0D0A0D0A0D0AC6
:103310003C68723E0D0A3C7020636C6173733D2201
:103320006831223E20D09DD0B0D181D182D180D0D1
:10333000BED0B9D0BAD0B020D0BFD0B0D180D0B03C
:10334000D0BCD0B5D182D180D0BED0B22045746877
:1033500065726E65743C2F703E0D0A3C666F726D2F
:10336000206E616D65203D20227365745F7061720F
:10337000616D22206D6574686F64203D2022676551
:10338000742220616374696F6E203D20222F77655F
:1033900062322E636769223E0D0A3C7020636C61C5
:1033A00073733D2270223E20D09FD0BE20D183D0A7
:1033B000BCD0BED0BBD187D0B0D0BDD0B8D18E20CC
:1033C000D0B8D181D0BFD0BED0BBD18CD0B7D18343
:1033D000D0B5D182D181D18F204D414320D0B0D002
:1033E000B4D180D0B5D1812C20D183D181D182D0EC
:1033F000B0D0BDD0BED0B2D0BBD0B5D0BDD0BDD185
:103400008BD0B920D0BDD0B020D0B7D0B0D0B2D002
:10341000BED0B4D0B53C2F703E0D0A3C7461626CD6
:10342000652072756C65733D226E6F6E6522207724
:10343000696474683D2231303025223E0D0A3C74A7
:10344000626F64793E090D0A093C74723E0D0A09E7
:10345000093C746420636C6173733D2274642220A0
:10346000616C69676E3D22726967687422207769B2
:103470006474683D22333025223E4D414320D0B054
:10348000D0B4D180D0B5D1813A3C2F74643E0909C3
:103490000D0A09093C746420616C69676E3D226CF9
:1034A000656674223E3C696E707574206E616D6550
:1034B0003D226D61636164647230222073697A65B4
:1034C0003D223122206D61786C656E6774683D2203
:1034D000332220747970653D2274657874222076D9
:1034E000616C7565203D202231362220636C61734A
:1034F000733D22696E707574223E3C2F74643E0DDC
:103500000A09093C746420616C69676E3D226C6530
:103510006674223E3C696E707574206E616D653D07
:10352000226D61636164647231222073697A653D42
:10353000223122206D61786C656E6774683D22339C
:103540002220747970653D2274657874222076613A
:103550006C7565203D20223139352220636C617302
:10356000733D22696E707574223E3C2F74643E0D6B
:103570000A09093C746420616C69676E3D226C65C0
:103580006674223E3C696E707574206E616D653D97
:10359000226D61636164647232222073697A653DD1
:1035A000223122206D61786C656E6774683D22332C
:1035B0002220747970653D227465787422207661CA
:1035C0006C7565203D20223132332220636C61739B
:1035D000733D22696E707574223E3C2F74643E0DFB
:1035E0000A09093C746420616C69676E3D226C6550
:1035F0006674223E3C696E707574206E616D653D27
:10360000226D61636164647233222073697A653D5F
:10361000223122206D61786C656E6774683D2233BB
:103620002220747970653D22746578742220766159
:103630006C7565203D202231362220636C617373E6
:103640003D22696E707574223E3C2F74643E0909F8
:103650000909090D0A09093C746420616C69676EE7
:103660003D226C656674223E3C696E707574206EF6
:10367000616D653D226D6163616464723422207303
:10368000697A653D223122206D61786C656E6774C0
:10369000683D22332220747970653D227465787408
:1036A000222076616C7565203D2022313622206310
:1036B0006C6173733D22696E707574223E3C2F7489
:1036C000643E09090909090D0A09093C746420616D
:1036D0006C69676E3D226C656674223E3C696E7053
:1036E0007574206E616D653D226D61636164647205
:1036F00035222073697A653D223122206D61786C14
:10370000656E6774683D22332220747970653D22AE
:1037100074657874222076616C7565203D202231B5
:10372000362220636C6173733D22696E707574225A
:103730003E3C2F74643E090D0A093C2F74723E0D05
:103740000A093C74723E0D0A09093C7464207769C9
:103750006474683D22333025223E3C2F74643E0D54
:103760000A09093C746420616C69676E3D226C65CE
:1037700066742220636F6C7370616E3D2236223E48
:103780003C627574746F6E20636C6173733D22626A
:103790007574746F6E20627574746F6E2D736176BC
:1037A000652220747970653D227375626D6974229B
:1037B0002076616C75653D225465737422206E61BC
:1037C0006D653D226574685F736D6163223ED0A1B3
:1037D000D0BED185D180D0B0D0BDD0B8D182D18C6F
:1037E0003C2F627574746F6E3E3C2F74643E0D0AFC
:1037F000093C2F74723E0D0A3C2F74626F64793E4F
:103800000D0A3C2F7461626C653E0D0A3C2F666F99
:10381000726D3E0D0A3C62723E0D0A0D0A3C666FE7
:10382000726D206E616D65203D20227365745F703E
:103830006172616D22206D6574686F64203D202285
:103840006765742220616374696F6E203D20222FAA
:10385000776562322E636769223E0D0A3C746162AD
:103860006C65202072756C65733D226E6F6E6522EB
:103870002077696474683D223130302522203E0D66
:103880000A3C74626F64793E0D0A093C74723E0D05
:103890000A09093C746420636C6173733D2274648B
:1038A0002220616C69676E3D227269676874223EEE
:1038B000495020D0B0D0B4D180D0B5D1813A3C2F7E
:1038C00074643E09090D0A09093C746420616C693D
:1038D000676E3D226C656674223E3C696E7075743D
:1038E000206E616D653D226465765F69705F61641D
:1038F00030222073697A653D223322206D61786C15
:10390000656E6774683D22332220747970653D22AC
:10391000746578742220636C6173733D22696E70E4
:103920007574223E3C2F74643E0D0A09093C746490
:1039300020616C69676E3D226C656674223E3C694D
:103940006E707574206E616D653D226465765F6989
:10395000705F616431222073697A653D22332220D1
:103960006D61786C656E6774683D223322207479CE
:1039700070653D22746578742220636C6173733DB9
:1039800022696E707574223E3C2F74643E0D0A09E4
:10399000093C746420616C69676E3D226C656674D5
:1039A000223E3C696E707574206E616D653D2264C7
:1039B00065765F69705F616432222073697A653D64
:1039C000223322206D61786C656E6774683D223306
:1039D0002220747970653D22746578742220636CAE
:1039E0006173733D22696E707574223E3C2F74645E
:1039F0003E0D0A09093C746420616C69676E3D22C2
:103A00006C656674223E3C696E707574206E616DE3
:103A1000653D226465765F69705F6164332220735F
:103A2000697A653D223322206D61786C656E67741A
:103A3000683D22332220747970653D227465787464
:103A40002220636C6173733D22696E707574223E2F
:103A50003C2F74643E090D0A093C2F74723E0D0A16
:103A6000093C74723E0D0A09093C7464207769644C
:103A700074683D22333025223E3C2F74643E0D0A8B
:103A800009093C746420616C69676E3D226C65664F
:103A9000742220636F6C7370616E3D2234223E3C51
:103AA000627574746F6E20636C6173733D2262750E
:103AB00074746F6E20627574746F6E2D73617665A9
:103AC0002220747970653D227375626D69742220BD
:103AD00076616C75653D225465737422206E616D4C
:103AE000653D226574685F736970223ED0A1D0BEC7
:103AF000D185D180D0B0D0BDD0B8D182D18C3C2F6F
:103B0000627574746F6E3E3C2F74643E0D0A093CFE
:103B10002F74723E0D0A093C2F74626F64793E0D5A
:103B20000A3C2F7461626C653E09090D0A3C2F66E0
:103B30006F726D3E0D0A0D0A3C62723E0D0A3C66C4
:103B40006F726D206E616D65203D20227365745F1C
:103B5000706172616D22206D6574686F64203D2014
:103B6000226765742220616374696F6E203D202294
:103B70002F776562322E636769223E0D0A3C7461BD
:103B8000626C65202072756C65733D226E6F6E6588
:103B9000222077696474683D223130302522203E2E
:103BA0000D0A3C74626F64793E0D0A093C74723EE2
:103BB0000D0A09093C746420636C6173733D2274BF
:103BC000642220616C69676E3D22726967687422A5
:103BD0003ED0A8D0BBD18ED0B73A3C2F74643E09FA
:103BE000090D0A09093C746420616C69676E3D2205
:103BF0006C656674223E3C696E707574206E616DF2
:103C0000653D2267775F69705F6164302220736968
:103C10007A653D223322206D61786C656E67746829
:103C20003D22332220747970653D227465787422B8
:103C300020636C6173733D22696E707574223E3C23
:103C40002F74643E0D0A09093C746420616C696735
:103C50006E3D226C656674223E3C696E7075742000
:103C60006E616D653D2267775F69705F61643122C7
:103C70002073697A653D223322206D61786C656E10
:103C80006774683D22332220747970653D22746523
:103C900078742220636C6173733D22696E70757451
:103CA000223E3C2F74643E0D0A09093C7464206175
:103CB0006C69676E3D226C656674223E3C696E706D
:103CC0007574206E616D653D2267775F69705F6115
:103CD0006432222073697A653D223322206D617837
:103CE0006C656E6774683D22332220747970653D7F
:103CF00022746578742220636C6173733D22696E4F
:103D0000707574223E3C2F74643E0D0A09093C74A0
:103D10006420616C69676E3D226C656674223E3C6E
:103D2000696E707574206E616D653D2267775F699D
:103D3000705F616433222073697A653D22332220EB
:103D40006D61786C656E6774683D223322207479EA
:103D500070653D22746578742220636C6173733DD5
:103D600022696E707574223E3C2F74643E090D0A00
:103D7000093C2F74723E0D0A093C74723E0D0A090B
:103D8000093C74642077696474683D2233302522CD
:103D90003E3C2F74643E0D0A09093C746420616C3A
:103DA00069676E3D226C6566742220636F6C737068
:103DB000616E3D2234223E3C627574746F6E2063E6
:103DC0006C6173733D22627574746F6E20627574DA
:103DD000746F6E2D736176652220747970653D2253
:103DE0007375626D6974222076616C75653D22542D
:103DF00065737422206E616D653D226574685F7322
:103E00006777223ED0A1D0BED185D180D0B0D0BDC1
:103E1000D0B8D182D18C3C2F627574746F6E3E3CE9
:103E20002F74643E0D0A093C2F74723E0D0A093C42
:103E30002F74626F64793E0D0A3C2F7461626C6569
:103E40003E09090D0A3C2F666F726D3E0D0A0D0A80
:103E50003C62723E0D0A0D0A3C62723E0D0A3C66DF
:103E60006F726D206E616D65203D20227365745FF9
:103E7000706172616D22206D6574686F64203D20F1
:103E8000226765742220616374696F6E203D202271
:103E90002F776562322E636769223E0D0A3C74619A
:103EA000626C65202072756C65733D226E6F6E6565
:103EB000222077696474683D223130302522203E0B
:103EC0000D0A3C74626F64793E0D0A093C74723EBF
:103ED0000D0A09093C746420636C6173733D22749C
:103EE000642220616C69676E3D2272696768742282
:103EF0003ED09CD0B0D181D0BAD0B020D0BFD0BEFF
:103F0000D0B4D181D0B5D182D0B83A3C2F74643EC0
:103F100009090D0A09093C746420616C69676E3DEA
:103F2000226C656674223E3C696E707574206E6109
:103F30006D653D226D6B5F69705F61643022207337
:103F4000697A653D223322206D61786C656E6774F5
:103F5000683D22332220747970653D22746578743F
:103F60002220636C6173733D22696E707574223E0A
:103F70003C2F74643E0D0A09093C746420616C692D
:103F8000676E3D226C656674223E3C696E70757486
:103F9000206E616D653D226D6B5F69705F6164319C
:103FA000222073697A653D223322206D61786C6529
:103FB0006E6774683D22332220747970653D2274E7
:103FC0006578742220636C6173733D22696E70752D
:103FD00074223E3C2F74643E0D0A09093C7464202F
:103FE000616C69676E3D226C656674223E3C696E49
:103FF000707574206E616D653D226D6B5F69705FD9
:10400000616432222073697A653D223322206D611A
:10401000786C656E6774683D223322207479706510
:104020003D22746578742220636C6173733D22694C
:104030006E707574223E3C2F74643E0D0A09093C73
:10404000746420616C69676E3D226C656674223E03
:104050003C696E707574206E616D653D226D6B5F9D
:1040600069705F616433222073697A653D2233226F
:10407000206D61786C656E6774683D223322207410
:104080007970653D22746578742220636C61737366
:104090003D22696E707574223E3C2F74643E090D9A
:1040A0000A093C2F74723E0D0A093C74723E0D0AD7
:1040B00009093C74642077696474683D22333025B3
:1040C000223E3C2F74643E0D0A09093C7464206151
:1040D0006C69676E3D226C6566742220636F6C7339
:1040E00070616E3D2234223E3C627574746F6E20A6
:1040F000636C6173733D22627574746F6E206275B8
:1041000074746F6E2D736176652220747970653DCD
:10411000227375626D6974222076616C75653D222B
:104120005465737422206E616D653D226574685F0D
:10413000736D6B223ED0A1D0BED185D180D0B0D0DE
:10414000BDD0B8D182D18C3C2F627574746F6E3E35
:104150003C2F74643E0D0A093C2F74723E0D0A090F
:104160003C2F74626F64793E0D0A3C2F7461626C5F
:10417000653E09090D0A3C2F666F726D3E0D0A0DF2
:104180000A3C62723E0D0A0D0A3C2F6469763E0DB0
:104190000A3C2F6469763E0D0A3C2F626F64793EBB
:1041A0000D0A3C2F68746D6C3E0000002DE9F24F43
:1041B00084B00700002F08D1DFF8283C8322DFF805
:1041C0007018DFF8700801F0FBFDDFF81C8C7868D0
:1041D000C8F8000078891428C0F20583DFF85898E1
:1041E000D9F80010D9F8140001F0FEFD002805D11F
:1041F00099F8140010F0F000E02800D1F3E2D8F8AC
:104200000000808901F018FE80B2000B80008DF85C
:104210000D009DF80D00142805DB38899DF80D1060
:1042200089B2884200D2DEE2DFF810689DF80D0006
:1042300014383080DFF808480020206078899DF825
:104240000D1089B2884209D33088DFF8F81708804A
:104250009DF80D10380002F051F846E0386800284B
:1042600008D1DFF8803BC222DFF8DC17DFF8C40793
:1042700001F0A6FD1421380002F040F8DFF8C40771
:1042800079890180318806888E1B0188380002F008
:1042900035F838684089310089B28842C0F0A3827D
:1042A000386840682060310089B2386802F026F82A
:1042B0003889801B38817889002808D0DFF8243BB2
:1042C000DF22DFF88817DFF86C0701F079FD388905
:1042D00039680989884208D0DFF8083BE022DFF816
:1042E0007017DFF8500701F06BFDD8F80000008868
:1042F00001F0A2FDD8F800100880D8F8000040882E
:1043000001F09AFDD8F800104880D8F800104868ED
:1043100001F09AFDD8F800104860DFF838170860FF
:10432000D8F80010886801F08FFDD8F80010886078
:10433000DFF814ACCAF80000D8F80000C08901F01A
:104340007BFDD8F80010C881D8F80000808901F002
:1043500073FD10F03F00DFF800170870DFF8FCB6BF
:104360003889ABF80000DFF8F006007810F0030F92
:104370000AD0BBF80000401CABF80000BBF80000FE
:1043800039898842C0F02F820026DFF8D4060468FD
:10439000002C70D0207D002808D1DFF8483AFB229D
:1043A000DFF8C016DFF88C0601F00AFD207D0A2830
:1043B00008D1DFF8303AFC22DFF8AC16DFF87406DB
:1043C00001F0FEFC207D012808D1DFF8183AFD221B
:1043D000DFF89816DFF85C0601F0F2FC207A00287E
:1043E0000AD0207AD9F8041091F83410491CC9B2C7
:1043F000884201D026003CE0208BD8F800100988C4
:10440000884235D1E08AD8F80010498888422FD1F7
:104410006068D9F8101088422AD12068D9F81410A1
:10442000884225D1E068A04209D1DFF8B83940F2CE
:104430000D12DFF83C16DFF8FC0501F0C1FC002E80
:1044400008D0E068F060DFF818060068E060DFF888
:1044500010060460E068A04209D1DFF8883940F214
:104460001512DFF81016DFF8CC0501F0A9FC02E008
:104470002600E4688CE7002C77D1DFF8CC0B0068CD
:104480000400002C37D0207D0A2809D0DFF85439E9
:1044900040F21F12DFF8B41BDFF8980501F090FC22
:1044A000207A002808D0207AD9F8041091F8341026
:1044B000491CC9B288421CD1208BD8F80010098849
:1044C000884216D1E08AD8F800104988884210D175
:1044D0006068D9F8101088420BD12068D9F8141000
:1044E000884206D1200000F056FA380001F05FFF44
:1044F0007CE1E468C5E700200600DFF8541B08688B
:104500000500002D21D0287A00280AD0287AD9F871
:10451000042092F83420521CD2B2904201D02E00D6
:1045200011E0E88AD8F80020528890420AD1286821
:10453000D9F81420904208D0002D02D02868002815
:1045400000D102E02E00ED68DBE7002D0DD0002E3B
:1045500004D0E868F0600868E8600D60280000F0AA
:1045600072F9380001F023FF40E1002C00F01881BF
:10457000DFF8849B0020C9F800003889A9F80800FA
:10458000C9F80470D8F80000C9F80C00DFF86C8B8B
:104590000020C8F800000020DFF81C1C0870002074
:1045A000DFF8181C0880DFF8B0040078000703D596
:1045B000787B50F001007873A06F002813D02000A2
:1045C00003F012F810F10D0F06D0A06F00280AD0EA
:1045D000BBF80000002806D0608D002802D1200022
:1045E00004F098FFC9E0DFF8D80B0460200000F069
:1045F00043FA8DF80C009DF90C0010F10D0F00F03E
:10460000BC80DFF8B4AB9AF80000000712D5D4F8EC
:104610009000002805D07FF00D012069D4F890208B
:1046200090472100DFF8380403F06AFA200002F016
:104630001CF9A2E000208DF80C00DFF880BBBBF86D
:10464000000000281DD0BBF80000ADF80000D4F831
:104650008000002809D0BDF8002021002069D4F88E
:10466000803098478DF80C0002E000208DF80C0097
:104670009DF90C0010F10D0F00F07F800020ABF8C9
:104680000000200000F0B5F8002876D1D8F800002E
:1046900000283BD0A06F002809D0DFF848374FF43E
:1046A000F372DFF8201BDFF88C0301F089FBA07E9A
:1046B000C00607D5D8F8000001F079FE200002F00E
:1046C000EDFA5AE0D4F8840000280AD00023D8F884
:1046D000002021002069D4F884C0E0478DF80C0048
:1046E00008E00023D8F800202100002003F02EF875
:1046F0008DF80C009DF90C0010F10D0F3DD09DF9C7
:104700000C00002802D0D8F80000A0679AF800003A
:10471000800626D5A06F002806D0A06F407B50F001
:104720002000A16F48731CE0208DB0F5066F02D009
:10473000208D401C2085D4F88400002809D0002357
:10474000002221002069D4F884C0E0478DF80C00D5
:1047500002E000208DF80C009DF90C0010F10D0F07
:104760000BD00020DFF8581A0860200000F041F854
:10477000002802D1200004F023FA0020DFF8401ABC
:1047800008600020C8F80000D9F80400002829D0EB
:10479000D9F8040001F00BFE0020C9F8040021E064
:1047A000D8F80000808901F047FB400717D4D8F8FB
:1047B000000000880290D8F800004088019019F1AC
:1047C0001000009019F11403A2480068BBF8001013
:1047D00010FA81F2DAF80010002004F04BFE3800E5
:1047E00001F0E5FD02E0380001F0E1FD05B0BDE8B3
:1047F000F08F10B50400002C08D1DFF8E83540F246
:104800005A22DFF8C4198B4801F0DAFADFF8A80958
:104810000078C00615D5A07EC00609D4D4F8900053
:10482000002805D07FF00E012069D4F89020904731
:1048300021008B4803F064F9200002F016F80120F3
:1048400000E0002010BD2DE9FE430400DFF80882DF
:1048500098F80000400700F19C80002C08D1DFF898
:10486000843540F28122DFF86419724801F0A8FA19
:1048700098F80000C00619D56F48DFF86C150A6873
:104880001288029209684988019110F11001009183
:1048900010F114036F480068704909884218DFF866
:1048A000A8060168200004F0E5FD72E098F8000019
:1048B00080076ED5607D03F019F80500002D0CD13E
:1048C000A069002806D05FF0FF3200212069A369AB
:1048D000984701E07FF00F005BE05748416929608D
:1048E00000696860E08AE882DFF8FC84D8F800009C
:1048F0000088288303202875DFF85891D9F8000034
:10490000401C6862686AE862280003F05FF90600EC
:10491000AE652E656E64EE65D9F80000401E6865D0
:1049200020692861EC67607A10F00C006872207AC8
:1049300028724B480168E960056004F04BFF0120D4
:10494000DFF88C180870280001F09EF9D8F80000F4
:10495000C089A5F86000B5F86000A5F86200281DC0
:1049600005F02EF801002A1D688E03F047F96886CD
:104970001221280004F048F80700380040B200284F
:1049800004D00021280002F0F9F802E0280004F029
:1049900017F9BDE8F7833EB504002F4D287840078E
:1049A00045D4002C08D1DFF83C3440F2EE22DFF889
:1049B0002418204801F004FA2878800725D52549D5
:1049C0000A68606A121A002A26D40A68606A121AF3
:1049D000208D121A012A1FDA1748DFF80C241368F9
:1049E0001B88029312685288019210F11002009203
:1049F00010F114030868194909884218DFF84805BE
:104A00000168200004F036FD11E02878C00703D5C6
:104A1000DFF8C4070068206210480088002806D02C
:104A2000608B50F002006083200004F0C9F837BDAD
:104A3000CC04020818F00108C0F70020FEF900209D
:104A4000B4F9002000FA00200C0A0208D40D020874
:104A500008FA0108B8F9002012FA002006FA00202E
:104A6000A8F9002040F00108B0EA010868F0010848
:104A7000DCEA010808EB01082DE9FF4105000026EA
:104A80000027002D09D1DFF85C334FF44772DFF8BF
:104A90004C17DFF84C0701F093F9DFF8688A98F8B3
:104AA0000000400744D5287D022808D1DFF898048B
:104AB0000068296D88421BD10120060018E0DFF84C
:104AC000241708686A6A904202D1012006000FE0AC
:104AD0000A68686A121A002A0AD40968686A091AF8
:104AE000288D091A012903DA688B50F002006883C7
:104AF0003000C0B2002819D0287D002808D1B94B59
:104B00004FF44E72DFF8E016DFF8D40601F058F9E2
:104B1000DFF8A406017851F008010170698B4FF6A7
:104B2000FE70014069837FF00D0089E2002087E27A
:104B300098F8000080070BD5287D022808D0287D32
:104B4000032805D0688B50F002006883002077E2CC
:104B5000A87EC00603D4DFF8800600682862002023
:104B600085F89B00002085F89A00280001F08CF859
:104B7000287D022814D0C0F06282042800F08281CF
:104B8000C0F0D680062800F0E181C0F08A810828B4
:104B900000F00B82C0F07681092800F03A824EE2E4
:104BA00098F8000010F01200122840F09980DFF809
:104BB000981308686A6C521C904240F09180DFF8AC
:104BC00024060268521C6A626A6AEA6209686964B9
:104BD00085490968C989A5F86010B5F86010A5F87D
:104BE00062100068401E686504202875281D04F0C6
:104BF000E7FE01002A1D688E03F000F8688641F286
:104C00001D10698E4900814202D3698E490001E07E
:104C100041F21C116A8E92008A4203D2688E80B2E1
:104C2000800009E0698E4900814203D3688E80B21A
:104C3000400001E041F21C10A5F84800B5F86600FC
:104C4000002808D1674B4FF45B72DFF8A015DFF83E
:104C5000900501F0B5F8B5F86600401EA5F86600AD
:104C6000286F0400002C0FD1E86E0400002C08D13E
:104C70005C4B4FF45D72DFF87815DFF8640501F0E6
:104C80009FF82068E86601E020682867200002F0AD
:104C900010FD286F002803D15FF0FF30288604E064
:104CA00000202886002085F84200D5F888000028DA
:104CB00007D0002229002869D5F8883098470700D6
:104CC00001E0002007007FF00C003900020049B22B
:104CD000914200F0B581688B50F00200688326E0B5
:104CE00098F80000C00622D5DFF808053E490A689A
:104CF0001288029209684988019110F1100100910F
:104D000010F11403DFF8DC040068DFF8FC170988F1
:104D100042188D480168280004F0ACFB95F8420069
:104D2000062804DA00202886280004F0EFF986E13E
:104D300098F80000C00640F1968083490A68686CC4
:104D4000121A521E002A73D40A68286D121A012AF8
:104D50006EDA04202875E86F002803D17FF0050083
:104D600007001BE0E86F8069002808D11D4B4FF455
:104D70006A72DFF88414DFF8680401F021F8E86F44
:104D80008069002807D0002229002869EB6F9B6901
:104D90009847070002E07FF00F000700380040B29C
:104DA00000280AD0380040B210F10D0F02D02800C0
:104DB00001F074FF7FF00C0042E1280000F020FABF
:104DC000DFF8F8130888002802D00888401E088001
:104DD00041F21D10698E4900814207D3698E490056
:104DE00006E000BF1CDA0108B0F9002041F21C11F6
:104DF0006A8E92008A4203D2688E80B2800009E0F7
:104E0000698E4900814203D3688E80B2400001E080
:104E100041F21C10A5F84800DFF89C0300788006DA
:104E20002FD5688B50F0020068830720287528E092
:104E3000DFF8C003DFF8B82B13681B8802931268F1
:104E40005288019210F11002009210F11403DFF861
:104E500094030068DFF8B0261288821809682800D9
:104E600004F008FB0DE098F80000800709D5DFF892
:104E700074030068696A491E884202D1280004F060
:104E800061F9DCE0280000F0BBF9DFF82C030078C2
:104E9000800605D5688B50F00200688307202875CE
:104EA000CDE0280000F0ACF9DFF80C0300788006B4
:104EB0003BD598F80000C00630D523480068296D1E
:104EC00088422BD1E86E002828D1688B50F0020070
:104ED0006883280002F0D4FDDFF820030168A942AE
:104EE00003D10168C96801600AE00068002807D0A2
:104EF000C168A94202D1E968C16001E0C068F5E774
:104F00000020E8600120B24908700A2028754E4848
:104F10000168E960056004F05DFC14E0688B50F006
:104F200002006883082028750DE098F80000C0068C
:104F300009D505480068296D884204D1E86E00282B
:104F400001D1062028757AE0BCF90020280000F085
:104F500057F999480078800626D5688B50F00200F2
:104F60006883280002F08CFDA4480168A94203D19F
:104F70000168C96801600AE00068002807D0C168BC
:104F8000A94202D1E968C16001E0C068F5E70020EC
:104F9000E86001208E4908700A2028752A480168B7
:104FA000E960056004F016FC49E0280000F028F9EB
:104FB00098F80000C0062BD5DFF8C40C0068296DF6
:104FC000884225D1E86E002822D1280002F058FD41
:104FD0008A480168A94203D10168C96801600AE0F2
:104FE0000068002807D0C168A94202D1E968C16001
:104FF00001E0C068F5E70020E8600120744908700E
:105000000A20287510480168E960056004F0E2FB99
:1050100015E0280000F0F4F898F80000C0060DD55F
:10502000DFF85C0C0068296D884207D1E86E002823
:1050300004D16148017851F010010170FFE70020B0
:1050400004B0BDE8F0810000ACF900200CE80108D4
:10505000A4F9002070B505000C00002D08D1DFF880
:10506000E43C40F21F42DFF81C1C5D4800F0A8FE43
:10507000E868808900F0E0FEC00705D5200002F056
:105080000DFB0020040034E0002C1ED0E0684168D5
:10509000544800682A898018411A2089091A002971
:1050A00013D4E068808900F0C7FEC00707D501204F
:1050B00000F0C2FEE96889890843E9688881260012
:1050C0002468300002F0F5FADEE7002C11D0E06829
:1050D0004168444802682B89D218511A012908DB1B
:1050E000E26851680068091A29812989686801F015
:1050F00057F82C6070BD00003CF80020C0F900207B
:105100002DE9F04706000C0017001D00002C4FD0C1
:10511000E168486800F098FE8246E068808900F007
:105120008BFE10F0030F01D0012100E00021208947
:105130001AEB00000918DFF8480B0068091A01296A
:1051400036DAA0462468D8F8040001F0ADF98146AB
:10515000B6F86600494689B2884208D2DFF8E43BD7
:1051600040F25742DFF8EC1B1D4800F029FEB6F86C
:105170006600B0EB0900A6F8660010490A88B8F886
:10518000080082180A80404602F093FAB6F86600DA
:105190000028BBD0002C0AD1002D08D1DFF8A43B99
:1051A00040F26242DFF8B01B0D4800F009FEADE7A7
:1051B0002000BDE8F087000013FA002004FA002068
:1051C000C4F900202C01020890F0010828FA010817
:1051D0000FFA002048FA01089CF900204801020853
:1051E00018F00108B8F9002068FA0108E404020880
:1051F00008080208C0F7002088FA0108A8F9002072
:105200002DE9FE4F06000027002E09D1DFF8343BC0
:1052100040F27B42DFF8441BDFF8440B00F0D0FD86
:10522000307D042809DADFF81C3B40F27C42DFF8CD
:10523000341BDFF82C0B00F0C3FDB2480078C00629
:1052400040F1A781B6F86000B16D08180290DFF850
:10525000181B726D0868121A002A18D4706D0A683B
:10526000904206D1B26DDFF8180A0068121A002ABF
:105270000DD4B06DDFF8082A126890421DD1B6F83F
:105280006000DFF86C271268D289904215D2DFF8EF
:1052900060070068C089A6F86000B6F86200B6F83A
:1052A0006020904203D2B6F86000A6F86200086859
:1052B0007065DFF8CC090068B065DFF8C449216883
:1052C000706C091A012947DA8F48008800283CD100
:1052D000B06DB6F8601040180299884235D1B6F921
:1052E0003000002831D4706C216888422DD1012013
:1052F000070096F8430096F84310491CC9B288424B
:1053000004D296F84300401C86F8430096F8430008
:10531000042813DBB6F84810708E4118B6F8480020
:1053200089B2814206D3B6F84810708E4118A6F8AB
:10533000481003E04FF6FF70A6F8480096F84300C7
:10534000032802DB300003F049FF002F40F0F0801B
:10535000002086F84300EBE02168706C091A491EB2
:10536000002900F1E2802168306D091A012980F2DC
:10537000DC80B07E40070BD5718B4FF6FB7001408F
:105380007183B6F84A00A6F848000020A6F86A0023
:10539000002086F84200B6F93C00C010B6F93E1075
:1053A0004018A6F840002068756C451B002086F860
:1053B000430020687064307D042861DBB6F8480043
:1053C000B6F84A10884228D2708B000501D5012119
:1053D00000E002212A000B00DBB2708E434392B240
:1053E0009BB29A4201D2280004E00800C0B2728E3B
:1053F00010FB02F0B6F848208218B6F8483092B296
:105400009A4205D3B6F848208218A6F8482003E04F
:105410004FF6FF72A6F8482032E0B6F86A00281866
:10542000B6F86A1080B2884205D3B6F86A00281828
:10543000A6F86A0003E04FF6FF70A6F86A00B6F817
:105440006A00B6F8481088421AD3B6F86A10B6F85F
:105450004800091AA6F86A10B6F84810708E41186C
:10546000B6F8480089B2814206D3B6F84810708E6B
:105470004118A6F8481003E04FF6FF70A6F8480060
:10548000F36EDFF8E828316F3000FFF739FE306740
:10549000336FDFF8DC28F16E3000FFF731FEF06685
:1054A000306F002803D15FF0FF30308601E000202C
:1054B000308600203077F06E002802D10020A6F858
:1054C0006800B6F86410DFF8AC0800884118A6F848
:1054D0006410708B00052BD5306F002816D1F06E4C
:1054E000002808D0F06EC168486800F0ADFCF16C8F
:1054F000081A01281CDA718B4FF2FF70014071838A
:1055000016E000BF12FA002006FA0020306FC168D2
:10551000486800F099FCF16C081A012808DA718BD0
:105520004FF2FF700140718302E0300003F0F2FFA0
:10553000706B00282DD0B16B2068091A002928D57E
:10554000DFF834080168706B081A00B2B6F93C1035
:10555000B0EBE100B18F4118B187010009B2002919
:1055600001D500B2404200B2B6F93E10B0EBA10046
:10557000ADF80000F18FBDF800004118F187B6F9D1
:105580003C00C010B6F93E104018A6F840000020BC
:105590007063DFF8E887B8F80000002800F03F8368
:1055A000307D072880F23B83DFF8BC97716AD9F819
:1055B0000000091A491E002963D4716AD9F8000055
:1055C000091AB8F80000091A491C012959DADFF84C
:1055D000B0476568716AD9F80000091A01916068DE
:1055E000002809D1DFF85C3740F29452DFF89417B5
:1055F000DFF86C0700F0E4FB01984FF6FF7188427A
:1056000009D3DFF8403740F29552DFF87C17DFF816
:10561000500700F0D5FBDDF804B0606800895946FA
:1056200089B2884209D2DFF81C3740F29752DFF87E
:105630005C17DFF82C0700F0C3FB2089B0EB0B00F0
:1056400020816068B0F808A0BAEB0B0A6889594657
:1056500089B2884208D26889BBEB000BA5F808A084
:10566000002068812D68F1E7594689B2280000F0D2
:1056700045FE706AC9F80000E068D9F80010416082
:1056800009E0D9F80010706A091A002903D5708B57
:1056900050F002007083D9F80010706A091A0029CE
:1056A00000F1B982D9F80010706A091A308D091A10
:1056B000491C012980F2AF82706AD9F80010884233
:1056C00040F0AA81DFF8B856E868808900F0B4FBA2
:1056D00010F0030F01D0012000E0002029894018BC
:1056E000A8F80000308DB8F80010884248D2E86869
:1056F000808900F0A1FBC00710D5E868808900F020
:105700009BFBC0B210F03E0000F096FBE9688A896E
:105710004CF2FF010A401043E9688881308D2881EE
:10572000E868808900F088FB800702D52889401E40
:1057300028812989686800F033FDE868808900F0D5
:105740007BFB10F0030F01D0012000E0002029892D
:105750004018A8F80000D9F80000B8F8001010FAB6
:1057600081F0716A328D8918884209D0DFF8D4350A
:1057700040F2CC52DFF81816DFF8E40500F020FB09
:10578000706F002800F08D80E868808900F054FB7D
:10579000C0070BD5706F002800F08380746F706FA6
:1057A00000687067200001F084FFF3E7746F002C3D
:1057B00034D0E0684168D9F80000B8F8002010FA49
:1057C00082F0411A2089091A002927D4E0688089CB
:1057D00000F032FBC0071BD5E868808900F02CFB85
:1057E000800715D4012000F027FBE9688989084368
:1057F000E9688881E868808900F01EFB10F0030FDB
:1058000001D0012000E0002029894018A8F80000FC
:10581000A2462468504601F04CFFC8E7002C3FD058
:10582000E1684868D9F80010B8F8002011FA82F150
:10583000081A012834DBE0684168D9F80000091A29
:105840002981E868808900F0F7FA800702D5288965
:10585000401E28812989686800F0A2FCE8688089D8
:1058600000F0EAFA10F0030F01D0012000E0002060
:1058700029894018A8F80000E1684868D9F80010A4
:10588000B8F8002011FA82F1814209D0DFF8B4346F
:1058900040F2FD52DFF8FC14DFF8C40400F090FA87
:1058A0007467D9F80000B8F8001010FA81F070623F
:1058B000308DB8F80010884209D2DFF8883440F201
:1058C0000762DFF8D414DFF8980400F079FA318D1C
:1058D000B8F80000091A3185300001F0EEFA686866
:1058E0000089002805D06868DFF8B014086000203F
:1058F0006860E868808900F09FFAC00705D5DFF886
:10590000A004017851F020010170706F002871D05F
:10591000706FC1684868716A88426BD1746F706F2C
:10592000C1684868C9F80000E068808900F084FA1E
:1059300010F0030F01D0012000E00020716A2289DD
:10594000801841187162E068808900F075FA10F0E3
:10595000030F01D0012000E00020318D2289801842
:10596000814209D2DFF8DC3340F22C62DFF83414D4
:10597000DFF8EC0300F024FAE068808900F05CFABC
:1059800010F0030F01D0012100E00021328D2089A9
:10599000121A511A3185300001F08FFA60680089BF
:1059A00000280DD0DFF8F4231068002804D06168C7
:1059B000106800F09DFD01E06068106000206060EC
:1059C000E068808900F038FAC0070AD5DFF8D00314
:1059D000017851F020010170307D042801D10720A9
:1059E000307520687067200001F063FE8DE700BF0E
:1059F000B0F90020B07EC00709D5718B4FF6FE705C
:105A000001407183708B50F00200708303E0708B53
:105A100050F00100708314E1706F002805D1DFF8A9
:105A2000600301F069FE7067F1E00024756F002DDE
:105A300000F0ED80E9684868D9F80010814218D17B
:105A4000DFF83C0329890289914211D201F054FE0A
:105A50008046B8F1000F0AD0002C02D0C4F80080B4
:105A600001E0C6F8748029004046FFF7F3FACEE063
:105A7000CDE0002C14D1E9684868D9F80010081A64
:105A800000283ED5BE4801F037FE8046B8F1000F31
:105A900005D0C6F8748029004046FFF7DBFAB6E06F
:105AA000E1684868D9F80010081A401E002828D478
:105AB000E9684868D9F80010081A401C012820DA63
:105AC000AF4801F019FE8046B8F1000F18D0E16828
:105AD000486821894118D9F80000091A012909DB11
